:020000020000FC
:100000000FE50DBF14E01EBFC0E6D0E0E0E0F0E079
:1000100000E00993CA36E9F7D030D9F7C0E6D0E05E
:1000200020D007D0503019F039D019D0F9CF0000C6
:10003000FECF48810895488308952197CF3521F454
:10004000D03011F4CFE5D2E008952196C03621F4E6
:10005000D23011F4C0E6D0E008953197089531967A
:100060000895E199FECFFFBBEEBBE09A5DB3089522
:100070004395E1DF08954A95DEDF089510E0F1DF52
:100080005B3509F413955D3509F41A95103009F0C4
:10009000E6DF0895403009F4F1DF08955B3511F48F
:1000A000F9DF08955D3501F05C3339F25E3369F2B2
:1000B0005B32F1F25D32F9F25E3201F05C3201F056
:0200C0000895A1
:00000001FF
