:020000020000FC
:100000000FE50DBF14E01EBFC0E6D0E0E0E0F0E079
:1000100000E00993CA36E9F7D030D9F7C0E6D0E05E
:1000200014D00BD0503039F032D00DD0F9CF0FEFC3
:1000300007BB00E001BB0000FECF48810895488364
:1000400008953197089531960895E199FECFFFBB49
:10005000EEBBE09A5DB30895202F10E0F6DF5B352C
:1000600009F413955D3509F41A95103029F020FD37
:10007000EADF20FFE6DFF2CF08954395E0DF089541
:100080004A95DDDF089548BB089542B308950BE516
:1000900010E00F931F935B3579F05D3591F05C3381
:1000A000A9F05E33D9F05B3241F35D3249F35E3241
:1000B00051F35C3251F30895403011F40FEFCCDF6F
:1000C0000895403011F000E0C7DF08952197CF3543
:1000D00021F4D03011F4CFE5D2E008952196C03656
:0C00E00021F4D23011F4C0E6D0E0089505
:00000001FF
